{
  "_format": "hh-sol-artifact-1",
  "contractName": "Voting",
  "sourceName": "contracts/Voting.sol",
  "abi": [
    {
      "inputs": [
        {
          "internalType": "bytes32",
          "name": "candidateName",
          "type": "bytes32"
        }
      ],
      "name": "addCandidate",
      "outputs": [],
      "stateMutability": "nonpayable",
      "type": "function"
    },
    {
      "inputs": [
        {
          "internalType": "uint256",
          "name": "",
          "type": "uint256"
        }
      ],
      "name": "candidateList",
      "outputs": [
        {
          "internalType": "bytes32",
          "name": "",
          "type": "bytes32"
        }
      ],
      "stateMutability": "view",
      "type": "function"
    },
    {
      "inputs": [],
      "name": "countCandidates",
      "outputs": [
        {
          "internalType": "uint256",
          "name": "",
          "type": "uint256"
        }
      ],
      "stateMutability": "view",
      "type": "function"
    },
    {
      "inputs": [
        {
          "internalType": "bytes32",
          "name": "candidateName",
          "type": "bytes32"
        }
      ],
      "name": "totalVotesFor",
      "outputs": [
        {
          "internalType": "uint8",
          "name": "",
          "type": "uint8"
        }
      ],
      "stateMutability": "view",
      "type": "function"
    },
    {
      "inputs": [
        {
          "internalType": "bytes32",
          "name": "candidateName",
          "type": "bytes32"
        }
      ],
      "name": "validCandidate",
      "outputs": [
        {
          "internalType": "bool",
          "name": "",
          "type": "bool"
        }
      ],
      "stateMutability": "view",
      "type": "function"
    },
    {
      "inputs": [
        {
          "internalType": "bytes32",
          "name": "candidateName",
          "type": "bytes32"
        }
      ],
      "name": "voteForCandidate",
      "outputs": [],
      "stateMutability": "nonpayable",
      "type": "function"
    },
    {
      "inputs": [
        {
          "internalType": "bytes32",
          "name": "",
          "type": "bytes32"
        }
      ],
      "name": "votesReceived",
      "outputs": [
        {
          "internalType": "uint8",
          "name": "",
          "type": "uint8"
        }
      ],
      "stateMutability": "view",
      "type": "function"
    }
  ],
  "bytecode": "0x608060405234801561001057600080fd5b5061055d806100206000396000f3fe608060405234801561001057600080fd5b506004361061007d5760003560e01c80637021939f1161005b5780637021939f146100fe578063b13c744b1461012e578063b86eda911461015e578063cc9ab2671461017c5761007d565b8063230d6ed8146100825780632f265cf71461009e578063392e6678146100ce575b600080fd5b61009c60048036038101906100979190610343565b610198565b005b6100b860048036038101906100b39190610343565b6101c4565b6040516100c5919061038c565b60405180910390f35b6100e860048036038101906100e39190610343565b6101ff565b6040516100f591906103c2565b60405180910390f35b61011860048036038101906101139190610343565b61025b565b604051610125919061038c565b60405180910390f35b61014860048036038101906101439190610413565b61027b565b604051610155919061044f565b60405180910390f35b61016661029f565b6040516101739190610479565b60405180910390f35b61019660048036038101906101919190610343565b6102ac565b005b600181908060018154018082558091505060019003906000526020600020016000909190919091505550565b60006101cf826101ff565b6101d857600080fd5b60008083815260200190815260200160002060009054906101000a900460ff169050919050565b600080600090505b60018054905081101561025057826001828154811061022957610228610494565b5b906000526020600020015403610243576001915050610256565b8080600101915050610207565b50600090505b919050565b60006020528060005260406000206000915054906101000a900460ff1681565b6001818154811061028b57600080fd5b906000526020600020016000915090505481565b6000600180549050905090565b6102b5816101ff565b6102be57600080fd5b600160008083815260200190815260200160002060008282829054906101000a900460ff166102ed91906104f2565b92506101000a81548160ff021916908360ff16021790555050565b600080fd5b6000819050919050565b6103208161030d565b811461032b57600080fd5b50565b60008135905061033d81610317565b92915050565b60006020828403121561035957610358610308565b5b60006103678482850161032e565b91505092915050565b600060ff82169050919050565b61038681610370565b82525050565b60006020820190506103a1600083018461037d565b92915050565b60008115159050919050565b6103bc816103a7565b82525050565b60006020820190506103d760008301846103b3565b92915050565b6000819050919050565b6103f0816103dd565b81146103fb57600080fd5b50565b60008135905061040d816103e7565b92915050565b60006020828403121561042957610428610308565b5b6000610437848285016103fe565b91505092915050565b6104498161030d565b82525050565b60006020820190506104646000830184610440565b92915050565b610473816103dd565b82525050565b600060208201905061048e600083018461046a565b92915050565b7f4e487b7100000000000000000000000000000000000000000000000000000000600052603260045260246000fd5b7f4e487b7100000000000000000000000000000000000000000000000000000000600052601160045260246000fd5b60006104fd82610370565b915061050883610370565b9250828201905060ff811115610521576105206104c3565b5b9291505056fea2646970667358221220ae887a930ce29a8ba5570a50888b51a8f71a154fd61de5cfafbc6f5f03758e3e64736f6c63430008180033",
  "linkReferences": {},
  "deployedLinkReferences": {}
}